{
  "_format": "hh-sol-artifact-1",
  "contractName": "NFT",
  "sourceName": "contracts/NFT.sol",
  "abi": [
    {
      "inputs": [
        {
          "internalType": "string",
          "name": "name",
          "type": "string"
        },
        {
          "internalType": "string",
          "name": "symbol",
          "type": "string"
        }
      ],
      "stateMutability": "nonpayable",
      "type": "constructor"
    },
    {
      "anonymous": false,
      "inputs": [
        {
          "indexed": true,
          "internalType": "address",
          "name": "owner",
          "type": "address"
        },
        {
          "indexed": true,
          "internalType": "address",
          "name": "approved",
          "type": "address"
        },
        {
          "indexed": true,
          "internalType": "uint256",
          "name": "tokenId",
          "type": "uint256"
        }
      ],
      "name": "Approval",
      "type": "event"
    },
    {
      "anonymous": false,
      "inputs": [
        {
          "indexed": true,
          "internalType": "address",
          "name": "owner",
          "type": "address"
        },
        {
          "indexed": true,
          "internalType": "address",
          "name": "operator",
          "type": "address"
        },
        {
          "indexed": false,
          "internalType": "bool",
          "name": "approved",
          "type": "bool"
        }
      ],
      "name": "ApprovalForAll",
      "type": "event"
    },
    {
      "anonymous": false,
      "inputs": [
        {
          "indexed": true,
          "internalType": "address",
          "name": "previousOwner",
          "type": "address"
        },
        {
          "indexed": true,
          "internalType": "address",
          "name": "newOwner",
          "type": "address"
        }
      ],
      "name": "OwnershipTransferred",
      "type": "event"
    },
    {
      "anonymous": false,
      "inputs": [
        {
          "indexed": true,
          "internalType": "address",
          "name": "from",
          "type": "address"
        },
        {
          "indexed": true,
          "internalType": "address",
          "name": "to",
          "type": "address"
        },
        {
          "indexed": true,
          "internalType": "uint256",
          "name": "tokenId",
          "type": "uint256"
        }
      ],
      "name": "Transfer",
      "type": "event"
    },
    {
      "inputs": [
        {
          "internalType": "address[]",
          "name": "addresses",
          "type": "address[]"
        }
      ],
      "name": "addToPresale",
      "outputs": [],
      "stateMutability": "nonpayable",
      "type": "function"
    },
    {
      "inputs": [
        {
          "internalType": "address",
          "name": "to",
          "type": "address"
        },
        {
          "internalType": "uint256",
          "name": "tokenId",
          "type": "uint256"
        }
      ],
      "name": "approve",
      "outputs": [],
      "stateMutability": "nonpayable",
      "type": "function"
    },
    {
      "inputs": [
        {
          "internalType": "address",
          "name": "owner",
          "type": "address"
        }
      ],
      "name": "balanceOf",
      "outputs": [
        {
          "internalType": "uint256",
          "name": "",
          "type": "uint256"
        }
      ],
      "stateMutability": "view",
      "type": "function"
    },
    {
      "inputs": [],
      "name": "baseURI",
      "outputs": [
        {
          "internalType": "string",
          "name": "",
          "type": "string"
        }
      ],
      "stateMutability": "view",
      "type": "function"
    },
    {
      "inputs": [],
      "name": "claimNFT",
      "outputs": [],
      "stateMutability": "nonpayable",
      "type": "function"
    },
    {
      "inputs": [],
      "name": "curTicketId",
      "outputs": [
        {
          "internalType": "uint256",
          "name": "",
          "type": "uint256"
        }
      ],
      "stateMutability": "view",
      "type": "function"
    },
    {
      "inputs": [
        {
          "internalType": "uint256",
          "name": "numberOfTokens",
          "type": "uint256"
        }
      ],
      "name": "doPresale",
      "outputs": [],
      "stateMutability": "payable",
      "type": "function"
    },
    {
      "inputs": [
        {
          "internalType": "uint256",
          "name": "numberOfTokens",
          "type": "uint256"
        }
      ],
      "name": "doPublic",
      "outputs": [],
      "stateMutability": "payable",
      "type": "function"
    },
    {
      "inputs": [
        {
          "internalType": "uint256",
          "name": "_tokenId",
          "type": "uint256"
        }
      ],
      "name": "exists",
      "outputs": [
        {
          "internalType": "bool",
          "name": "",
          "type": "bool"
        }
      ],
      "stateMutability": "view",
      "type": "function"
    },
    {
      "inputs": [
        {
          "internalType": "uint256",
          "name": "tokenId",
          "type": "uint256"
        }
      ],
      "name": "getApproved",
      "outputs": [
        {
          "internalType": "address",
          "name": "",
          "type": "address"
        }
      ],
      "stateMutability": "view",
      "type": "function"
    },
    {
      "inputs": [
        {
          "internalType": "address",
          "name": "user",
          "type": "address"
        }
      ],
      "name": "getUserClaimableTicketCount",
      "outputs": [
        {
          "internalType": "uint256",
          "name": "",
          "type": "uint256"
        }
      ],
      "stateMutability": "view",
      "type": "function"
    },
    {
      "inputs": [
        {
          "internalType": "address",
          "name": "owner",
          "type": "address"
        },
        {
          "internalType": "address",
          "name": "operator",
          "type": "address"
        }
      ],
      "name": "isApprovedForAll",
      "outputs": [
        {
          "internalType": "bool",
          "name": "",
          "type": "bool"
        }
      ],
      "stateMutability": "view",
      "type": "function"
    },
    {
      "inputs": [
        {
          "internalType": "address",
          "name": "user",
          "type": "address"
        }
      ],
      "name": "isInWhitelist",
      "outputs": [
        {
          "internalType": "bool",
          "name": "",
          "type": "bool"
        }
      ],
      "stateMutability": "view",
      "type": "function"
    },
    {
      "inputs": [],
      "name": "isPresaleLive",
      "outputs": [
        {
          "internalType": "bool",
          "name": "",
          "type": "bool"
        }
      ],
      "stateMutability": "view",
      "type": "function"
    },
    {
      "inputs": [],
      "name": "isPublicSaleLive",
      "outputs": [
        {
          "internalType": "bool",
          "name": "",
          "type": "bool"
        }
      ],
      "stateMutability": "view",
      "type": "function"
    },
    {
      "inputs": [],
      "name": "maxNftSupply",
      "outputs": [
        {
          "internalType": "uint256",
          "name": "",
          "type": "uint256"
        }
      ],
      "stateMutability": "view",
      "type": "function"
    },
    {
      "inputs": [],
      "name": "maxPresaleSupply",
      "outputs": [
        {
          "internalType": "uint256",
          "name": "",
          "type": "uint256"
        }
      ],
      "stateMutability": "view",
      "type": "function"
    },
    {
      "inputs": [],
      "name": "maxPresaleToMint",
      "outputs": [
        {
          "internalType": "uint256",
          "name": "",
          "type": "uint256"
        }
      ],
      "stateMutability": "view",
      "type": "function"
    },
    {
      "inputs": [],
      "name": "maxPublicToMint",
      "outputs": [
        {
          "internalType": "uint256",
          "name": "",
          "type": "uint256"
        }
      ],
      "stateMutability": "view",
      "type": "function"
    },
    {
      "inputs": [],
      "name": "mintPrice",
      "outputs": [
        {
          "internalType": "uint256",
          "name": "",
          "type": "uint256"
        }
      ],
      "stateMutability": "view",
      "type": "function"
    },
    {
      "inputs": [],
      "name": "name",
      "outputs": [
        {
          "internalType": "string",
          "name": "",
          "type": "string"
        }
      ],
      "stateMutability": "view",
      "type": "function"
    },
    {
      "inputs": [],
      "name": "owner",
      "outputs": [
        {
          "internalType": "address",
          "name": "",
          "type": "address"
        }
      ],
      "stateMutability": "view",
      "type": "function"
    },
    {
      "inputs": [
        {
          "internalType": "uint256",
          "name": "tokenId",
          "type": "uint256"
        }
      ],
      "name": "ownerOf",
      "outputs": [
        {
          "internalType": "address",
          "name": "",
          "type": "address"
        }
      ],
      "stateMutability": "view",
      "type": "function"
    },
    {
      "inputs": [],
      "name": "presaleAllowed",
      "outputs": [
        {
          "internalType": "bool",
          "name": "",
          "type": "bool"
        }
      ],
      "stateMutability": "view",
      "type": "function"
    },
    {
      "inputs": [
        {
          "internalType": "address",
          "name": "",
          "type": "address"
        }
      ],
      "name": "presaleNumOfUser",
      "outputs": [
        {
          "internalType": "uint256",
          "name": "",
          "type": "uint256"
        }
      ],
      "stateMutability": "view",
      "type": "function"
    },
    {
      "inputs": [],
      "name": "presaleStartTimestamp",
      "outputs": [
        {
          "internalType": "uint256",
          "name": "",
          "type": "uint256"
        }
      ],
      "stateMutability": "view",
      "type": "function"
    },
    {
      "inputs": [
        {
          "internalType": "address",
          "name": "",
          "type": "address"
        }
      ],
      "name": "publicNumOfUser",
      "outputs": [
        {
          "internalType": "uint256",
          "name": "",
          "type": "uint256"
        }
      ],
      "stateMutability": "view",
      "type": "function"
    },
    {
      "inputs": [],
      "name": "publicSaleAllowed",
      "outputs": [
        {
          "internalType": "bool",
          "name": "",
          "type": "bool"
        }
      ],
      "stateMutability": "view",
      "type": "function"
    },
    {
      "inputs": [],
      "name": "publicSaleStartTimestamp",
      "outputs": [
        {
          "internalType": "uint256",
          "name": "",
          "type": "uint256"
        }
      ],
      "stateMutability": "view",
      "type": "function"
    },
    {
      "inputs": [
        {
          "internalType": "address[]",
          "name": "addresses",
          "type": "address[]"
        }
      ],
      "name": "removeToPresale",
      "outputs": [],
      "stateMutability": "nonpayable",
      "type": "function"
    },
    {
      "inputs": [],
      "name": "renounceOwnership",
      "outputs": [],
      "stateMutability": "nonpayable",
      "type": "function"
    },
    {
      "inputs": [
        {
          "internalType": "address",
          "name": "_to",
          "type": "address"
        },
        {
          "internalType": "uint256",
          "name": "_numberOfTokens",
          "type": "uint256"
        }
      ],
      "name": "reserveNfts",
      "outputs": [],
      "stateMutability": "nonpayable",
      "type": "function"
    },
    {
      "inputs": [
        {
          "internalType": "address",
          "name": "from",
          "type": "address"
        },
        {
          "internalType": "address",
          "name": "to",
          "type": "address"
        },
        {
          "internalType": "uint256",
          "name": "tokenId",
          "type": "uint256"
        }
      ],
      "name": "safeTransferFrom",
      "outputs": [],
      "stateMutability": "nonpayable",
      "type": "function"
    },
    {
      "inputs": [
        {
          "internalType": "address",
          "name": "from",
          "type": "address"
        },
        {
          "internalType": "address",
          "name": "to",
          "type": "address"
        },
        {
          "internalType": "uint256",
          "name": "tokenId",
          "type": "uint256"
        },
        {
          "internalType": "bytes",
          "name": "_data",
          "type": "bytes"
        }
      ],
      "name": "safeTransferFrom",
      "outputs": [],
      "stateMutability": "nonpayable",
      "type": "function"
    },
    {
      "inputs": [
        {
          "internalType": "address",
          "name": "operator",
          "type": "address"
        },
        {
          "internalType": "bool",
          "name": "approved",
          "type": "bool"
        }
      ],
      "name": "setApprovalForAll",
      "outputs": [],
      "stateMutability": "nonpayable",
      "type": "function"
    },
    {
      "inputs": [
        {
          "internalType": "string",
          "name": "baseURI",
          "type": "string"
        }
      ],
      "name": "setBaseURI",
      "outputs": [],
      "stateMutability": "nonpayable",
      "type": "function"
    },
    {
      "inputs": [
        {
          "internalType": "uint256",
          "name": "_maxValue",
          "type": "uint256"
        }
      ],
      "name": "setMaxNftSupply",
      "outputs": [],
      "stateMutability": "nonpayable",
      "type": "function"
    },
    {
      "inputs": [
        {
          "internalType": "uint256",
          "name": "_maxValue",
          "type": "uint256"
        }
      ],
      "name": "setMaxPresaleSupply",
      "outputs": [],
      "stateMutability": "nonpayable",
      "type": "function"
    },
    {
      "inputs": [
        {
          "internalType": "uint256",
          "name": "_maxValue",
          "type": "uint256"
        }
      ],
      "name": "setMaxPresaleToMint",
      "outputs": [],
      "stateMutability": "nonpayable",
      "type": "function"
    },
    {
      "inputs": [
        {
          "internalType": "uint256",
          "name": "_maxValue",
          "type": "uint256"
        }
      ],
      "name": "setMaxPublicToMint",
      "outputs": [],
      "stateMutability": "nonpayable",
      "type": "function"
    },
    {
      "inputs": [
        {
          "internalType": "uint256",
          "name": "_price",
          "type": "uint256"
        }
      ],
      "name": "setMintPrice",
      "outputs": [],
      "stateMutability": "nonpayable",
      "type": "function"
    },
    {
      "inputs": [
        {
          "internalType": "bytes4",
          "name": "interfaceId",
          "type": "bytes4"
        }
      ],
      "name": "supportsInterface",
      "outputs": [
        {
          "internalType": "bool",
          "name": "",
          "type": "bool"
        }
      ],
      "stateMutability": "view",
      "type": "function"
    },
    {
      "inputs": [],
      "name": "symbol",
      "outputs": [
        {
          "internalType": "string",
          "name": "",
          "type": "string"
        }
      ],
      "stateMutability": "view",
      "type": "function"
    },
    {
      "inputs": [
        {
          "internalType": "uint256",
          "name": "index",
          "type": "uint256"
        }
      ],
      "name": "tokenByIndex",
      "outputs": [
        {
          "internalType": "uint256",
          "name": "",
          "type": "uint256"
        }
      ],
      "stateMutability": "view",
      "type": "function"
    },
    {
      "inputs": [
        {
          "internalType": "address",
          "name": "owner",
          "type": "address"
        },
        {
          "internalType": "uint256",
          "name": "index",
          "type": "uint256"
        }
      ],
      "name": "tokenOfOwnerByIndex",
      "outputs": [
        {
          "internalType": "uint256",
          "name": "",
          "type": "uint256"
        }
      ],
      "stateMutability": "view",
      "type": "function"
    },
    {
      "inputs": [
        {
          "internalType": "uint256",
          "name": "tokenId",
          "type": "uint256"
        }
      ],
      "name": "tokenURI",
      "outputs": [
        {
          "internalType": "string",
          "name": "",
          "type": "string"
        }
      ],
      "stateMutability": "view",
      "type": "function"
    },
    {
      "inputs": [
        {
          "internalType": "address",
          "name": "_owner",
          "type": "address"
        }
      ],
      "name": "tokensOfOwner",
      "outputs": [
        {
          "internalType": "uint256[]",
          "name": "",
          "type": "uint256[]"
        }
      ],
      "stateMutability": "view",
      "type": "function"
    },
    {
      "inputs": [
        {
          "internalType": "address",
          "name": "",
          "type": "address"
        }
      ],
      "name": "totalClaimed",
      "outputs": [
        {
          "internalType": "uint256",
          "name": "",
          "type": "uint256"
        }
      ],
      "stateMutability": "view",
      "type": "function"
    },
    {
      "inputs": [],
      "name": "totalSupply",
      "outputs": [
        {
          "internalType": "uint256",
          "name": "",
          "type": "uint256"
        }
      ],
      "stateMutability": "view",
      "type": "function"
    },
    {
      "inputs": [
        {
          "internalType": "address",
          "name": "from",
          "type": "address"
        },
        {
          "internalType": "address",
          "name": "to",
          "type": "address"
        },
        {
          "internalType": "uint256",
          "name": "tokenId",
          "type": "uint256"
        }
      ],
      "name": "transferFrom",
      "outputs": [],
      "stateMutability": "nonpayable",
      "type": "function"
    },
    {
      "inputs": [
        {
          "internalType": "address",
          "name": "newOwner",
          "type": "address"
        }
      ],
      "name": "transferOwnership",
      "outputs": [],
      "stateMutability": "nonpayable",
      "type": "function"
    },
    {
      "inputs": [
        {
          "internalType": "bool",
          "name": "newStatus",
          "type": "bool"
        },
        {
          "internalType": "uint256",
          "name": "timeDiff",
          "type": "uint256"
        }
      ],
      "name": "updatePresaleState",
      "outputs": [],
      "stateMutability": "nonpayable",
      "type": "function"
    },
    {
      "inputs": [
        {
          "internalType": "bool",
          "name": "newStatus",
          "type": "bool"
        },
        {
          "internalType": "uint256",
          "name": "timeDiff",
          "type": "uint256"
        }
      ],
      "name": "updatePublicSaleState",
      "outputs": [],
      "stateMutability": "nonpayable",
      "type": "function"
    },
    {
      "inputs": [],
      "name": "withdraw",
      "outputs": [],
      "stateMutability": "nonpayable",
      "type": "function"
    }
  ],
  "bytecode": "0x60806040523480156200001157600080fd5b5060405162003b5038038062003b50833981810160405260408110156200003757600080fd5b81019080805160405193929190846401000000008211156200005857600080fd5b9083019060208201858111156200006e57600080fd5b82516401000000008111828201881017156200008957600080fd5b82525081516020918201929091019080838360005b83811015620000b85781810151838201526020016200009e565b50505050905090810190601f168015620000e65780820380516001836020036101000a031916815260200191505b50604052602001805160405193929190846401000000008211156200010a57600080fd5b9083019060208201858111156200012057600080fd5b82516401000000008111828201881017156200013b57600080fd5b82525081516020918201929091019080838360005b838110156200016a57818101518382015260200162000150565b50505050905090810190601f168015620001985780820380516001836020036101000a031916815260200191505b5060405250839150829050620001b56301ffc9a760e01b620002bb565b8151620001ca90600690602085019062000344565b508051620001e090600790602084019062000344565b50620001f36380ac58cd60e01b620002bb565b62000205635b5e139f60e01b620002bb565b6200021763780e9d6360e01b620002bb565b50600090506200022662000340565b600a80546001600160a01b0319166001600160a01b038316908117909155604051919250906000907f8be0079c531659141344cd1fd0a4f28419497f9722a3daafe3b4186f6b6457e0908290a35050612710600e5550610cb2600f5567011c37937e080000600b55600a600c556002600d55600060108190556015805461ffff60a01b191690556016819055601755620003f0565b6001600160e01b031980821614156200031b576040805162461bcd60e51b815260206004820152601c60248201527f4552433136353a20696e76616c696420696e7465726661636520696400000000604482015290519081900360640190fd5b6001600160e01b0319166000908152602081905260409020805460ff19166001179055565b3390565b828054600181600116156101000203166002900490600052602060002090601f0160209004810192826200037c5760008555620003c7565b82601f106200039757805160ff1916838001178555620003c7565b82800160010185558215620003c7579182015b82811115620003c7578251825591602001919060010190620003aa565b50620003d5929150620003d9565b5090565b5b80821115620003d55760008155600101620003da565b61375080620004006000396000f3fe6080604052600436106103355760003560e01c80636c0360eb116101ab578063b88d4fde116100f7578063e985e9c511610095578063f2fde38b1161006f578063f2fde38b14610d5a578063f4a0a52814610d8d578063fa5b6d7814610db7578063fb2efcd514610de157610335565b8063e985e9c514610cc2578063ed1b463f14610cfd578063ef5d9ae814610d2757610335565b8063ce364d7c116100d1578063ce364d7c14610c49578063d7822c9914610c7b578063de83c1aa14610c90578063e85ceae214610cad57610335565b8063b88d4fde14610b1b578063c87b56dd14610bec578063ccd35e1d14610c1657610335565b80638623307111610164578063a22cb4651161013e578063a22cb46514610a3b578063a29ca44914610a76578063a542ba8d14610a8b578063aef6ee1f14610aa057610335565b806386233071146109fc5780638da5cb5b14610a1157806395d89b4114610a2657610335565b80636c0360eb146108dd5780636d842993146108f257806370a082311461091c578063715018a61461094f578063746f90b9146109645780638462151c1461097957610335565b80633ccfd60b11610285578063520423fc116102235780636352211e116101fd5780636352211e14610856578063672756ad146108805780636817c76c1461089557806369cd9768146108aa57610335565b8063520423fc1461071557806355f804b31461079057806356cbeb921461084157610335565b80634538170a1161025f5780634538170a146106735780634ea37fec146106ac5780634f558e79146106c15780634f6ccce7146106eb57610335565b80633ccfd60b146105fe5780633f3df2791461061357806342842e0e1461063057610335565b806318160ddd116102f25780632c9ad1fb116102cc5780632c9ad1fb146105545780632f745c5914610569578063366626fa146105a25780633c302c19146105cc57610335565b806318160ddd146104e757806321bdb26e146104fc57806323b872dd1461051157610335565b806301ffc9a71461033a57806306fdde0314610382578063081812fc1461040c578063095ea7b31461045257806309fd82121461048d57806317984feb146104c0575b600080fd5b34801561034657600080fd5b5061036e6004803603602081101561035d57600080fd5b50356001600160e01b031916610e14565b604080519115158252519081900360200190f35b34801561038e57600080fd5b50610397610e37565b6040805160208082528351818301528351919283929083019185019080838360005b838110156103d15781810151838201526020016103b9565b50505050905090810190601f1680156103fe5780820380516001836020036101000a031916815260200191505b509250505060405180910390f35b34801561041857600080fd5b506104366004803603602081101561042f57600080fd5b5035610ece565b604080516001600160a01b039092168252519081900360200190f35b34801561045e57600080fd5b5061048b6004803603604081101561047557600080fd5b506001600160a01b038135169060200135610f30565b005b34801561049957600080fd5b5061036e600480360360208110156104b057600080fd5b50356001600160a01b031661100b565b3480156104cc57600080fd5b506104d5611029565b60408051918252519081900360200190f35b3480156104f357600080fd5b506104d561102f565b34801561050857600080fd5b506104d5611040565b34801561051d57600080fd5b5061048b6004803603606081101561053457600080fd5b506001600160a01b03813581169160208101359091169060400135611046565b34801561056057600080fd5b5061036e61109d565b34801561057557600080fd5b506104d56004803603604081101561058c57600080fd5b506001600160a01b0381351690602001356110e3565b3480156105ae57600080fd5b5061048b600480360360208110156105c557600080fd5b503561110e565b3480156105d857600080fd5b5061048b600480360360408110156105ef57600080fd5b50803515159060200135611175565b34801561060a57600080fd5b5061048b611201565b61048b6004803603602081101561062957600080fd5b5035611296565b34801561063c57600080fd5b5061048b6004803603606081101561065357600080fd5b506001600160a01b03813581169160208101359091169060400135611568565b34801561067f57600080fd5b5061048b6004803603604081101561069657600080fd5b506001600160a01b038135169060200135611583565b3480156106b857600080fd5b506104d56116c1565b3480156106cd57600080fd5b5061036e600480360360208110156106e457600080fd5b50356116c7565b3480156106f757600080fd5b506104d56004803603602081101561070e57600080fd5b50356116d2565b34801561072157600080fd5b5061048b6004803603602081101561073857600080fd5b810190602081018135600160201b81111561075257600080fd5b82018360208201111561076457600080fd5b803590602001918460208302840111600160201b8311171561078557600080fd5b5090925090506116e8565b34801561079c57600080fd5b5061048b600480360360208110156107b357600080fd5b810190602081018135600160201b8111156107cd57600080fd5b8201836020820111156107df57600080fd5b803590602001918460018302840111600160201b8311171561080057600080fd5b91908080601f0160208091040260200160405190810160405280939291908181526020018383808284376000920191909152509295506117a0945050505050565b34801561084d57600080fd5b506104d561180e565b34801561086257600080fd5b506104366004803603602081101561087957600080fd5b5035611814565b34801561088c57600080fd5b5061048b61183c565b3480156108a157600080fd5b506104d56118db565b3480156108b657600080fd5b506104d5600480360360208110156108cd57600080fd5b50356001600160a01b03166118e1565b3480156108e957600080fd5b50610397611922565b3480156108fe57600080fd5b5061048b6004803603602081101561091557600080fd5b5035611983565b34801561092857600080fd5b506104d56004803603602081101561093f57600080fd5b50356001600160a01b03166119ea565b34801561095b57600080fd5b5061048b611a52565b34801561097057600080fd5b506104d5611afe565b34801561098557600080fd5b506109ac6004803603602081101561099c57600080fd5b50356001600160a01b0316611b04565b60408051602080825283518183015283519192839290830191858101910280838360005b838110156109e85781810151838201526020016109d0565b505050509050019250505060405180910390f35b348015610a0857600080fd5b5061036e611bb2565b348015610a1d57600080fd5b50610436611bde565b348015610a3257600080fd5b50610397611bed565b348015610a4757600080fd5b5061048b60048036036040811015610a5e57600080fd5b506001600160a01b0381351690602001351515611c4e565b348015610a8257600080fd5b506104d5611d53565b348015610a9757600080fd5b5061036e611d59565b348015610aac57600080fd5b5061048b60048036036020811015610ac357600080fd5b810190602081018135600160201b811115610add57600080fd5b820183602082011115610aef57600080fd5b803590602001918460208302840111600160201b83111715610b1057600080fd5b509092509050611d69565b348015610b2757600080fd5b5061048b60048036036080811015610b3e57600080fd5b6001600160a01b03823581169260208101359091169160408201359190810190608081016060820135600160201b811115610b7857600080fd5b820183602082011115610b8a57600080fd5b803590602001918460018302840111600160201b83111715610bab57600080fd5b91908080601f016020809104026020016040519081016040528093929190818152602001838380828437600092019190915250929550611e21945050505050565b348015610bf857600080fd5b5061039760048036036020811015610c0f57600080fd5b5035611e7f565b348015610c2257600080fd5b506104d560048036036020811015610c3957600080fd5b50356001600160a01b0316612100565b348015610c5557600080fd5b5061048b60048036036040811015610c6c57600080fd5b50803515159060200135612112565b348015610c8757600080fd5b506104d561219e565b61048b60048036036020811015610ca657600080fd5b50356121a4565b348015610cb957600080fd5b5061036e6123a2565b348015610cce57600080fd5b5061036e60048036036040811015610ce557600080fd5b506001600160a01b03813581169160200135166123b2565b348015610d0957600080fd5b5061048b60048036036020811015610d2057600080fd5b50356123e0565b348015610d3357600080fd5b506104d560048036036020811015610d4a57600080fd5b50356001600160a01b0316612447565b348015610d6657600080fd5b5061048b60048036036020811015610d7d57600080fd5b50356001600160a01b0316612459565b348015610d9957600080fd5b5061048b60048036036020811015610db057600080fd5b503561255c565b348015610dc357600080fd5b5061048b60048036036020811015610dda57600080fd5b50356125c3565b348015610ded57600080fd5b506104d560048036036020811015610e0457600080fd5b50356001600160a01b031661262a565b6001600160e01b0319811660009081526020819052604090205460ff165b919050565b60068054604080516020601f6002600019610100600188161502019095169490940493840181900481028201810190925282815260609390929091830182828015610ec35780601f10610e9857610100808354040283529160200191610ec3565b820191906000526020600020905b815481529060010190602001808311610ea657829003601f168201915b505050505090505b90565b6000610ed98261263c565b610f145760405162461bcd60e51b815260040180806020018281038252602c8152602001806135dc602c913960400191505060405180910390fd5b506000908152600460205260409020546001600160a01b031690565b6000610f3b82611814565b9050806001600160a01b0316836001600160a01b03161415610f8e5760405162461bcd60e51b81526004018080602001828103825260218152602001806136a16021913960400191505060405180910390fd5b806001600160a01b0316610fa0612649565b6001600160a01b03161480610fc15750610fc181610fbc612649565b6123b2565b610ffc5760405162461bcd60e51b815260040180806020018281038252603881526020018061350e6038913960400191505060405180910390fd5b611006838361264d565b505050565b6001600160a01b031660009081526018602052604090205460ff1690565b600d5481565b600061103b60026126bb565b905090565b600f5481565b611057611051612649565b826126c6565b6110925760405162461bcd60e51b81526004018080602001828103825260318152602001806136c26031913960400191505060405180910390fd5b61100683838361276a565b6015546000904290600160a01b900460ff1680156110bd57508060165411155b80156110cc5750600f54601054105b156110db576001915050610ecb565b600091505090565b6001600160a01b038216600090815260016020526040812061110590836128b6565b90505b92915050565b611116612649565b6001600160a01b0316611127611bde565b6001600160a01b031614611170576040805162461bcd60e51b81526020600482018190526024820152600080516020613608833981519152604482015290519081900360640190fd5b600c55565b61117d612649565b6001600160a01b031661118e611bde565b6001600160a01b0316146111d7576040805162461bcd60e51b81526020600482018190526024820152600080516020613608833981519152604482015290519081900360640190fd5b6015805460ff60a81b1916600160a81b84151502179055426111f981836128c2565b601755505050565b611209612649565b6001600160a01b031661121a611bde565b6001600160a01b031614611263576040805162461bcd60e51b81526020600482018190526024820152600080516020613608833981519152604482015290519081900360640190fd5b6040514790339082156108fc029083906000818181858888f19350505050158015611292573d6000803e3d6000fd5b5050565b6000601160006112a4612649565b6001600160a01b03166001600160a01b031681526020019081526020016000205490506112cf61109d565b611320576040805162461bcd60e51b815260206004820152601b60248201527f50726573616c6520686173206e6f742073746172746564207965740000000000604482015290519081900360640190fd5b6018600061132c612649565b6001600160a01b0316815260208101919091526040016000205460ff1661139a576040805162461bcd60e51b815260206004820152601960248201527f596f7520617265206e6f74206f6e207768697465206c69737400000000000000604482015290519081900360640190fd5b600d546113a783836128c2565b11156113e45760405162461bcd60e51b815260040180806020018281038252602481526020018061349a6024913960400191505060405180910390fd5b600f546010546113f490846128c2565b1115611447576040805162461bcd60e51b815260206004820152601a60248201527f45786365656473206d61782070726573616c6520737570706c79000000000000604482015290519081900360640190fd5b6000821161149c576040805162461bcd60e51b815260206004820152601c60248201527f4d757374206d696e74206174206c65617374206f6e6520746f6b656e00000000604482015290519081900360640190fd5b600b5434906114ab908461291c565b11156114fe576040805162461bcd60e51b815260206004820152601f60248201527f45746865722076616c75652073656e74206973206e6f7420636f727265637400604482015290519081900360640190fd5b61152e6011600061150d612649565b6001600160a01b0316815260208101919091526040016000205483906128c2565b6011600061153a612649565b6001600160a01b0316815260208101919091526040016000205560105461156190836128c2565b6010555050565b61100683838360405180602001604052806000815250611e21565b61158b612649565b6001600160a01b031661159c611bde565b6001600160a01b0316146115e5576040805162461bcd60e51b81526020600482018190526024820152600080516020613608833981519152604482015290519081900360640190fd5b60006115ef61102f565b90506001600160a01b03831661164c576040805162461bcd60e51b815260206004820152601b60248201527f496e76616c6964206164647265737320746f20726573657276652e0000000000604482015290519081900360640190fd5b601054811461168c5760405162461bcd60e51b81526004018080602001828103825260218152602001806136286021913960400191505060405180910390fd5b60005b828110156116ab576116a384828401612975565b60010161168f565b6010546116b890846128c2565b60105550505050565b60165481565b60006111088261263c565b6000806116e060028461298f565b509392505050565b6116f0612649565b6001600160a01b0316611701611bde565b6001600160a01b03161461174a576040805162461bcd60e51b81526020600482018190526024820152600080516020613608833981519152604482015290519081900360640190fd5b60005b818110156110065760006018600085858581811061176757fe5b602090810292909201356001600160a01b0316835250810191909152604001600020805460ff191691151591909117905560010161174d565b6117a8612649565b6001600160a01b03166117b9611bde565b6001600160a01b031614611802576040805162461bcd60e51b81526020600482018190526024820152600080516020613608833981519152604482015290519081900360640190fd5b61180b816129ab565b50565b600c5481565b60006111088260405180606001604052806029815260200161357060299139600291906129be565b600061184e611849612649565b6118e1565b905060005b8181101561188157600061186561102f565b9050611878611872612649565b82612975565b50600101611853565b506118b260136000611891612649565b6001600160a01b0316815260208101919091526040016000205482906128c2565b601360006118be612649565b6001600160a01b0316815260208101919091526040016000205550565b600b5481565b6001600160a01b03811660009081526013602090815260408083205460128352818420546011909352908320546111089261191c91906128c2565b906129d5565b60098054604080516020601f6002600019610100600188161502019095169490940493840181900481028201810190925282815260609390929091830182828015610ec35780601f10610e9857610100808354040283529160200191610ec3565b61198b612649565b6001600160a01b031661199c611bde565b6001600160a01b0316146119e5576040805162461bcd60e51b81526020600482018190526024820152600080516020613608833981519152604482015290519081900360640190fd5b600e55565b60006001600160a01b038216611a315760405162461bcd60e51b815260040180806020018281038252602a815260200180613546602a913960400191505060405180910390fd5b6001600160a01b0382166000908152600160205260409020611108906126bb565b611a5a612649565b6001600160a01b0316611a6b611bde565b6001600160a01b031614611ab4576040805162461bcd60e51b81526020600482018190526024820152600080516020613608833981519152604482015290519081900360640190fd5b600a546040516000916001600160a01b0316907f8be0079c531659141344cd1fd0a4f28419497f9722a3daafe3b4186f6b6457e0908390a3600a80546001600160a01b0319169055565b60105481565b60606000611b11836119ea565b905080611b2e575050604080516000815260208101909152610e32565b60008167ffffffffffffffff81118015611b4757600080fd5b50604051908082528060200260200182016040528015611b71578160200160208202803683370190505b50905060005b82811015611ba857611b8985826110e3565b828281518110611b9557fe5b6020908102919091010152600101611b77565b509150610e329050565b6015546000904290600160a81b900460ff1680156110cc575080601754116110db576001915050610ecb565b600a546001600160a01b031690565b60078054604080516020601f6002600019610100600188161502019095169490940493840181900481028201810190925282815260609390929091830182828015610ec35780601f10610e9857610100808354040283529160200191610ec3565b611c56612649565b6001600160a01b0316826001600160a01b03161415611cbc576040805162461bcd60e51b815260206004820152601960248201527f4552433732313a20617070726f766520746f2063616c6c657200000000000000604482015290519081900360640190fd5b8060056000611cc9612649565b6001600160a01b03908116825260208083019390935260409182016000908120918716808252919093529120805460ff191692151592909217909155611d0d612649565b6001600160a01b03167f17307eab39ab6107e8899845ad3d59bd9653f200f220920489ca2b5937696c318360405180821515815260200191505060405180910390a35050565b600e5481565b601554600160a81b900460ff1681565b611d71612649565b6001600160a01b0316611d82611bde565b6001600160a01b031614611dcb576040805162461bcd60e51b81526020600482018190526024820152600080516020613608833981519152604482015290519081900360640190fd5b60005b8181101561100657600160186000858585818110611de857fe5b602090810292909201356001600160a01b0316835250810191909152604001600020805460ff1916911515919091179055600101611dce565b611e32611e2c612649565b836126c6565b611e6d5760405162461bcd60e51b81526004018080602001828103825260318152602001806136c26031913960400191505060405180910390fd5b611e7984848484612a32565b50505050565b6060611e8a8261263c565b611ec55760405162461bcd60e51b815260040180806020018281038252602f815260200180613672602f913960400191505060405180910390fd5b60008281526008602090815260408083208054825160026001831615610100026000190190921691909104601f810185900485028201850190935282815292909190830182828015611f585780601f10611f2d57610100808354040283529160200191611f58565b820191906000526020600020905b815481529060010190602001808311611f3b57829003601f168201915b505050505090506000611f69611922565b9050805160001415611f7d57509050610e32565b81511561203e5780826040516020018083805190602001908083835b60208310611fb85780518252601f199092019160209182019101611f99565b51815160209384036101000a600019018019909216911617905285519190930192850191508083835b602083106120005780518252601f199092019160209182019101611fe1565b6001836020036101000a0380198251168184511680821785525050505050509050019250505060405160208183030381529060405292505050610e32565b8061204885612a84565b6040516020018083805190602001908083835b6020831061207a5780518252601f19909201916020918201910161205b565b51815160209384036101000a600019018019909216911617905285519190930192850191508083835b602083106120c25780518252601f1990920191602091820191016120a3565b6001836020036101000a0380198251168184511680821785525050505050509050019250505060405160208183030381529060405292505050919050565b60116020526000908152604090205481565b61211a612649565b6001600160a01b031661212b611bde565b6001600160a01b031614612174576040805162461bcd60e51b81526020600482018190526024820152600080516020613608833981519152604482015290519081900360640190fd5b6015805460ff60a01b1916600160a01b841515021790554261219681836128c2565b601655505050565b60175481565b6000601260006121b2612649565b6001600160a01b03166001600160a01b031681526020019081526020016000205490506121dd611bb2565b61222e576040805162461bcd60e51b815260206004820152601f60248201527f5075626c69632073616c6520686173206e6f7420737461727465642079657400604482015290519081900360640190fd5b600c5461223b83836128c2565b11156122785760405162461bcd60e51b81526004018080602001828103825260288152602001806136f36028913960400191505060405180910390fd5b600e5460105461228890846128c2565b11156122d0576040805162461bcd60e51b815260206004820152601260248201527145786365656473206d617820737570706c7960701b604482015290519081900360640190fd5b60008211612325576040805162461bcd60e51b815260206004820152601c60248201527f4d757374206d696e74206174206c65617374206f6e6520746f6b656e00000000604482015290519081900360640190fd5b600b543490612334908461291c565b1115612387576040805162461bcd60e51b815260206004820152601f60248201527f45746865722076616c75652073656e74206973206e6f7420636f727265637400604482015290519081900360640190fd5b6123966012600061150d612649565b6012600061153a612649565b601554600160a01b900460ff1681565b6001600160a01b03918216600090815260056020908152604080832093909416825291909152205460ff1690565b6123e8612649565b6001600160a01b03166123f9611bde565b6001600160a01b031614612442576040805162461bcd60e51b81526020600482018190526024820152600080516020613608833981519152604482015290519081900360640190fd5b600d55565b60136020526000908152604090205481565b612461612649565b6001600160a01b0316612472611bde565b6001600160a01b0316146124bb576040805162461bcd60e51b81526020600482018190526024820152600080516020613608833981519152604482015290519081900360640190fd5b6001600160a01b0381166125005760405162461bcd60e51b81526004018080602001828103825260268152602001806134746026913960400191505060405180910390fd5b600a546040516001600160a01b038084169216907f8be0079c531659141344cd1fd0a4f28419497f9722a3daafe3b4186f6b6457e090600090a3600a80546001600160a01b0319166001600160a01b0392909216919091179055565b612564612649565b6001600160a01b0316612575611bde565b6001600160a01b0316146125be576040805162461bcd60e51b81526020600482018190526024820152600080516020613608833981519152604482015290519081900360640190fd5b600b55565b6125cb612649565b6001600160a01b03166125dc611bde565b6001600160a01b031614612625576040805162461bcd60e51b81526020600482018190526024820152600080516020613608833981519152604482015290519081900360640190fd5b600f55565b60126020526000908152604090205481565b6000611108600283612b5f565b3390565b600081815260046020526040902080546001600160a01b0319166001600160a01b038416908117909155819061268282611814565b6001600160a01b03167f8c5be1e5ebec7d5bd14f71427d1e84f3dd0314c0f7b2291e5b200ac8c7c3b92560405160405180910390a45050565b600061110882612b6b565b60006126d18261263c565b61270c5760405162461bcd60e51b815260040180806020018281038252602c8152602001806134e2602c913960400191505060405180910390fd5b600061271783611814565b9050806001600160a01b0316846001600160a01b031614806127525750836001600160a01b031661274784610ece565b6001600160a01b0316145b80612762575061276281856123b2565b949350505050565b826001600160a01b031661277d82611814565b6001600160a01b0316146127c25760405162461bcd60e51b81526004018080602001828103825260298152602001806136496029913960400191505060405180910390fd5b6001600160a01b0382166128075760405162461bcd60e51b81526004018080602001828103825260248152602001806134be6024913960400191505060405180910390fd5b612812838383611006565b61281d60008261264d565b6001600160a01b038316600090815260016020526040902061283f9082612b6f565b506001600160a01b03821660009081526001602052604090206128629082612b7b565b5061286f60028284612b87565b5080826001600160a01b0316846001600160a01b03167fddf252ad1be2c89b69c2b068fc378daa952ba7f163c4a11628f55a4df523b3ef60405160405180910390a4505050565b60006111058383612b9d565b600082820183811015611105576040805162461bcd60e51b815260206004820152601b60248201527f536166654d6174683a206164646974696f6e206f766572666c6f770000000000604482015290519081900360640190fd5b60008261292b57506000611108565b8282028284828161293857fe5b04146111055760405162461bcd60e51b81526004018080602001828103825260218152602001806135bb6021913960400191505060405180910390fd5b611292828260405180602001604052806000815250612c01565b600080808061299e8686612c53565b9097909650945050505050565b805161129290600990602084019061337e565b60006129cb848484612cce565b90505b9392505050565b600082821115612a2c576040805162461bcd60e51b815260206004820152601e60248201527f536166654d6174683a207375627472616374696f6e206f766572666c6f770000604482015290519081900360640190fd5b50900390565b612a3d84848461276a565b612a4984848484612d98565b611e795760405162461bcd60e51b81526004018080602001828103825260328152602001806134426032913960400191505060405180910390fd5b606081612aa957506040805180820190915260018152600360fc1b6020820152610e32565b8160005b8115612ac157600101600a82049150612aad565b60008167ffffffffffffffff81118015612ada57600080fd5b506040519080825280601f01601f191660200182016040528015612b05576020820181803683370190505b50859350905060001982015b8315612b5657600a840660300160f81b82828060019003935081518110612b3457fe5b60200101906001600160f81b031916908160001a905350600a84049350612b11565b50949350505050565b60006111058383612f00565b5490565b60006111058383612f18565b60006111058383612fde565b60006129cb84846001600160a01b038516613028565b81546000908210612bdf5760405162461bcd60e51b81526004018080602001828103825260228152602001806134206022913960400191505060405180910390fd5b826000018281548110612bee57fe5b9060005260206000200154905092915050565b612c0b83836130bf565b612c186000848484612d98565b6110065760405162461bcd60e51b81526004018080602001828103825260328152602001806134426032913960400191505060405180910390fd5b815460009081908310612c975760405162461bcd60e51b81526004018080602001828103825260228152602001806135996022913960400191505060405180910390fd5b6000846000018481548110612ca857fe5b906000526020600020906002020190508060000154816001015492509250509250929050565b60008281526001840160205260408120548281612d695760405162461bcd60e51b81526004018080602001828103825283818151815260200191508051906020019080838360005b83811015612d2e578181015183820152602001612d16565b50505050905090810190601f168015612d5b5780820380516001836020036101000a031916815260200191505b509250505060405180910390fd5b50846000016001820381548110612d7c57fe5b9060005260206000209060020201600101549150509392505050565b6000612dac846001600160a01b03166131ed565b612db857506001612762565b6000612ec6630a85bd0160e11b612dcd612649565b88878760405160240180856001600160a01b03168152602001846001600160a01b0316815260200183815260200180602001828103825283818151815260200191508051906020019080838360005b83811015612e34578181015183820152602001612e1c565b50505050905090810190601f168015612e615780820380516001836020036101000a031916815260200191505b5095505050505050604051602081830303815290604052906001600160e01b0319166020820180516001600160e01b038381831617835250505050604051806060016040528060328152602001613442603291396001600160a01b03881691906131f3565b90506000818060200190516020811015612edf57600080fd5b50516001600160e01b031916630a85bd0160e11b1492505050949350505050565b60009081526001919091016020526040902054151590565b60008181526001830160205260408120548015612fd45783546000198083019190810190600090879083908110612f4b57fe5b9060005260206000200154905080876000018481548110612f6857fe5b600091825260208083209091019290925582815260018981019092526040902090840190558654879080612f9857fe5b60019003818190600052602060002001600090559055866001016000878152602001908152602001600020600090556001945050505050611108565b6000915050611108565b6000612fea8383612f00565b61302057508154600181810184556000848152602080822090930184905584548482528286019093526040902091909155611108565b506000611108565b60008281526001840160205260408120548061308d5750506040805180820182528381526020808201848152865460018181018955600089815284812095516002909302909501918255915190820155865486845281880190925292909120556129ce565b828560000160018303815481106130a057fe5b90600052602060002090600202016001018190555060009150506129ce565b6001600160a01b03821661311a576040805162461bcd60e51b815260206004820181905260248201527f4552433732313a206d696e7420746f20746865207a65726f2061646472657373604482015290519081900360640190fd5b6131238161263c565b15613175576040805162461bcd60e51b815260206004820152601c60248201527f4552433732313a20746f6b656e20616c7265616479206d696e74656400000000604482015290519081900360640190fd5b61318160008383611006565b6001600160a01b03821660009081526001602052604090206131a39082612b7b565b506131b060028284612b87565b5060405181906001600160a01b038416906000907fddf252ad1be2c89b69c2b068fc378daa952ba7f163c4a11628f55a4df523b3ef908290a45050565b3b151590565b60606129cb848460008585613207856131ed565b613258576040805162461bcd60e51b815260206004820152601d60248201527f416464726573733a2063616c6c20746f206e6f6e2d636f6e7472616374000000604482015290519081900360640190fd5b600080866001600160a01b031685876040518082805190602001908083835b602083106132965780518252601f199092019160209182019101613277565b6001836020036101000a03801982511681845116808217855250505050505090500191505060006040518083038185875af1925050503d80600081146132f8576040519150601f19603f3d011682016040523d82523d6000602084013e6132fd565b606091505b509150915061330d828286613318565b979650505050505050565b606083156133275750816129ce565b8251156133375782518084602001fd5b60405162461bcd60e51b8152602060048201818152845160248401528451859391928392604401919085019080838360008315612d2e578181015183820152602001612d16565b828054600181600116156101000203166002900490600052602060002090601f0160209004810192826133b457600085556133fa565b82601f106133cd57805160ff19168380011785556133fa565b828001600101855582156133fa579182015b828111156133fa5782518255916020019190600101906133df565b5061340692915061340a565b5090565b5b80821115613406576000815560010161340b56fe456e756d657261626c655365743a20696e646578206f7574206f6620626f756e64734552433732313a207472616e7366657220746f206e6f6e20455243373231526563656976657220696d706c656d656e7465724f776e61626c653a206e6577206f776e657220697320746865207a65726f206164647265737345786365656473206d61782070726573616c6520616c6c6f7765642070657220757365724552433732313a207472616e7366657220746f20746865207a65726f20616464726573734552433732313a206f70657261746f7220717565727920666f72206e6f6e6578697374656e7420746f6b656e4552433732313a20617070726f76652063616c6c6572206973206e6f74206f776e6572206e6f7220617070726f76656420666f7220616c6c4552433732313a2062616c616e636520717565727920666f7220746865207a65726f20616464726573734552433732313a206f776e657220717565727920666f72206e6f6e6578697374656e7420746f6b656e456e756d657261626c654d61703a20696e646578206f7574206f6620626f756e6473536166654d6174683a206d756c7469706c69636174696f6e206f766572666c6f774552433732313a20617070726f76656420717565727920666f72206e6f6e6578697374656e7420746f6b656e4f776e61626c653a2063616c6c6572206973206e6f7420746865206f776e65725469636b657420696420616e6420737570706c79206e6f74206d6174636865642e4552433732313a207472616e73666572206f6620746f6b656e2074686174206973206e6f74206f776e4552433732314d657461646174613a2055524920717565727920666f72206e6f6e6578697374656e7420746f6b656e4552433732313a20617070726f76616c20746f2063757272656e74206f776e65724552433732313a207472616e736665722063616c6c6572206973206e6f74206f776e6572206e6f7220617070726f76656445786365656473206d6178207075626c69632073616c6520616c6c6f776564207065722075736572a2646970667358221220df0c5e3c36b95198afb5e322a5e64e49d98c040da5bf7156e1456cdd1c9be7e564736f6c63430007060033",
  "linkReferences": {},
  "deployedLinkReferences": {}
}